{
  "address": "0x23653D7541134C389758787eF6cC6b6De307D1D1",
  "abi": [
    {
      "inputs": [
        {
          "internalType": "address",
          "name": "priceFeedAddress",
          "type": "address"
        }
      ],
      "stateMutability": "nonpayable",
      "type": "constructor"
    },
    {
      "inputs": [],
      "name": "FundMe__OnlyOwner",
      "type": "error"
    },
    {
      "stateMutability": "payable",
      "type": "fallback"
    },
    {
      "inputs": [],
      "name": "fund",
      "outputs": [],
      "stateMutability": "payable",
      "type": "function"
    },
    {
      "inputs": [
        {
          "internalType": "uint256",
          "name": "",
          "type": "uint256"
        }
      ],
      "name": "funders",
      "outputs": [
        {
          "internalType": "address",
          "name": "",
          "type": "address"
        }
      ],
      "stateMutability": "view",
      "type": "function"
    },
    {
      "inputs": [],
      "name": "owner",
      "outputs": [
        {
          "internalType": "address",
          "name": "",
          "type": "address"
        }
      ],
      "stateMutability": "view",
      "type": "function"
    },
    {
      "inputs": [],
      "name": "priceFeed",
      "outputs": [
        {
          "internalType": "contract AggregatorV3Interface",
          "name": "",
          "type": "address"
        }
      ],
      "stateMutability": "view",
      "type": "function"
    },
    {
      "inputs": [],
      "name": "withdraw",
      "outputs": [],
      "stateMutability": "nonpayable",
      "type": "function"
    },
    {
      "stateMutability": "payable",
      "type": "receive"
    }
  ],
  "transactionHash": "0xd2ded9116e257f35f6ea497fe844e03ed0f9c9eb28177de9508968addfd1b7bb",
  "args": [
    "0x694AA1769357215DE4FAC081bf1f309aDC325306"
  ],
  "numDeployments": 7,
  "solcInputHash": "aa64591b2ef18b2ee9413263a59ea07c",
  "bytecode": "0x6080604052671bc16d674ec8000060005534801561001c57600080fd5b50604051610d7e380380610d7e833981810160405281019061003e9190610129565b33600360006101000a81548173ffffffffffffffffffffffffffffffffffffffff021916908373ffffffffffffffffffffffffffffffffffffffff16021790555080600460006101000a81548173ffffffffffffffffffffffffffffffffffffffff021916908373ffffffffffffffffffffffffffffffffffffffff16021790555050610156565b600080fd5b600073ffffffffffffffffffffffffffffffffffffffff82169050919050565b60006100f6826100cb565b9050919050565b610106816100eb565b811461011157600080fd5b50565b600081519050610123816100fd565b92915050565b60006020828403121561013f5761013e6100c6565b5b600061014d84828501610114565b91505092915050565b610c19806101656000396000f3fe60806040526004361061004e5760003560e01c80633ccfd60b14610067578063741bef1a1461007e5780638da5cb5b146100a9578063b60d4288146100d4578063dc0d3dff146100de5761005d565b3661005d5761005b61011b565b005b61006561011b565b005b34801561007357600080fd5b5061007c61023d565b005b34801561008a57600080fd5b50610093610480565b6040516100a091906106fe565b60405180910390f35b3480156100b557600080fd5b506100be6104a6565b6040516100cb919061073a565b60405180910390f35b6100dc61011b565b005b3480156100ea57600080fd5b5061010560048036038101906101009190610790565b6104cc565b604051610112919061073a565b60405180910390f35b600054610153600460009054906101000a900473ffffffffffffffffffffffffffffffffffffffff163461050b90919063ffffffff16565b1015610194576040517f08c379a000000000000000000000000000000000000000000000000000000000815260040161018b9061081a565b60405180910390fd5b6001339080600181540180825580915050600190039060005260206000200160009091909190916101000a81548173ffffffffffffffffffffffffffffffffffffffff021916908373ffffffffffffffffffffffffffffffffffffffff16021790555034600260003373ffffffffffffffffffffffffffffffffffffffff1673ffffffffffffffffffffffffffffffffffffffff16815260200190815260200160002081905550565b600360009054906101000a900473ffffffffffffffffffffffffffffffffffffffff1673ffffffffffffffffffffffffffffffffffffffff163373ffffffffffffffffffffffffffffffffffffffff16146102c4576040517f0bced8bc00000000000000000000000000000000000000000000000000000000815260040160405180910390fd5b60005b600180549050811015610370576000600182815481106102ea576102e961083a565b5b9060005260206000200160009054906101000a900473ffffffffffffffffffffffffffffffffffffffff1690506000600260008373ffffffffffffffffffffffffffffffffffffffff1673ffffffffffffffffffffffffffffffffffffffff1681526020019081526020016000208190555050808061036890610898565b9150506102c7565b50600067ffffffffffffffff81111561038c5761038b6108e0565b5b6040519080825280602002602001820160405280156103ba5781602001602082028036833780820191505090505b50600190805190602001906103d09291906105d8565b5060003373ffffffffffffffffffffffffffffffffffffffff16476040516103f790610940565b60006040518083038185875af1925050503d8060008114610434576040519150601f19603f3d011682016040523d82523d6000602084013e610439565b606091505b505090508061047d576040517f08c379a0000000000000000000000000000000000000000000000000000000008152600401610474906109a1565b60405180910390fd5b50565b600460009054906101000a900473ffffffffffffffffffffffffffffffffffffffff1681565b600360009054906101000a900473ffffffffffffffffffffffffffffffffffffffff1681565b600181815481106104dc57600080fd5b906000526020600020016000915054906101000a900473ffffffffffffffffffffffffffffffffffffffff1681565b60008061051783610547565b90506000670de0b6b3a7640000828661053091906109c1565b61053a9190610a32565b9050809250505092915050565b6000808273ffffffffffffffffffffffffffffffffffffffff1663feaf968c6040518163ffffffff1660e01b815260040160a060405180830381865afa158015610595573d6000803e3d6000fd5b505050506040513d601f19601f820116820180604052508101906105b99190610af0565b5050509150506402540be400816105d09190610b6b565b915050919050565b828054828255906000526020600020908101928215610651579160200282015b828111156106505782518260006101000a81548173ffffffffffffffffffffffffffffffffffffffff021916908373ffffffffffffffffffffffffffffffffffffffff160217905550916020019190600101906105f8565b5b50905061065e9190610662565b5090565b5b8082111561067b576000816000905550600101610663565b5090565b600073ffffffffffffffffffffffffffffffffffffffff82169050919050565b6000819050919050565b60006106c46106bf6106ba8461067f565b61069f565b61067f565b9050919050565b60006106d6826106a9565b9050919050565b60006106e8826106cb565b9050919050565b6106f8816106dd565b82525050565b600060208201905061071360008301846106ef565b92915050565b60006107248261067f565b9050919050565b61073481610719565b82525050565b600060208201905061074f600083018461072b565b92915050565b600080fd5b6000819050919050565b61076d8161075a565b811461077857600080fd5b50565b60008135905061078a81610764565b92915050565b6000602082840312156107a6576107a5610755565b5b60006107b48482850161077b565b91505092915050565b600082825260208201905092915050565b7f4c6573736572207468616e206d696e696d756d20646f6e6174696f6e00000000600082015250565b6000610804601c836107bd565b915061080f826107ce565b602082019050919050565b60006020820190508181036000830152610833816107f7565b9050919050565b7f4e487b7100000000000000000000000000000000000000000000000000000000600052603260045260246000fd5b7f4e487b7100000000000000000000000000000000000000000000000000000000600052601160045260246000fd5b60006108a38261075a565b91507fffffffffffffffffffffffffffffffffffffffffffffffffffffffffffffffff82036108d5576108d4610869565b5b600182019050919050565b7f4e487b7100000000000000000000000000000000000000000000000000000000600052604160045260246000fd5b600081905092915050565b50565b600061092a60008361090f565b91506109358261091a565b600082019050919050565b600061094b8261091d565b9150819050919050565b7f43616c6c206661696c6564000000000000000000000000000000000000000000600082015250565b600061098b600b836107bd565b915061099682610955565b602082019050919050565b600060208201905081810360008301526109ba8161097e565b9050919050565b60006109cc8261075a565b91506109d78361075a565b92508282026109e58161075a565b915082820484148315176109fc576109fb610869565b5b5092915050565b7f4e487b7100000000000000000000000000000000000000000000000000000000600052601260045260246000fd5b6000610a3d8261075a565b9150610a488361075a565b925082610a5857610a57610a03565b5b828204905092915050565b600069ffffffffffffffffffff82169050919050565b610a8281610a63565b8114610a8d57600080fd5b50565b600081519050610a9f81610a79565b92915050565b6000819050919050565b610ab881610aa5565b8114610ac357600080fd5b50565b600081519050610ad581610aaf565b92915050565b600081519050610aea81610764565b92915050565b600080600080600060a08688031215610b0c57610b0b610755565b5b6000610b1a88828901610a90565b9550506020610b2b88828901610ac6565b9450506040610b3c88828901610adb565b9350506060610b4d88828901610adb565b9250506080610b5e88828901610a90565b9150509295509295909350565b6000610b7682610aa5565b9150610b8183610aa5565b9250828202610b8f81610aa5565b91507f80000000000000000000000000000000000000000000000000000000000000008414600084121615610bc757610bc6610869565b5b8282058414831517610bdc57610bdb610869565b5b509291505056fea2646970667358221220f24a08b539af9d872197e70279ca8ac8e515a6bf230e90fc4cc5cfe2485be20464736f6c63430008120033",
  "devdoc": {
    "kind": "dev",
    "methods": {},
    "version": 1
  },
  "userdoc": {
    "kind": "user",
    "methods": {},
    "version": 1
  },
  "storageLayout": {
    "storage": [
      {
        "astId": 111,
        "contract": "contracts/FundMe.sol:FundMe",
        "label": "minimumDonationInUSD",
        "offset": 0,
        "slot": "0",
        "type": "t_uint256"
      },
      {
        "astId": 114,
        "contract": "contracts/FundMe.sol:FundMe",
        "label": "funders",
        "offset": 0,
        "slot": "1",
        "type": "t_array(t_address)dyn_storage"
      },
      {
        "astId": 118,
        "contract": "contracts/FundMe.sol:FundMe",
        "label": "addressToDonationAmt",
        "offset": 0,
        "slot": "2",
        "type": "t_mapping(t_address,t_uint256)"
      },
      {
        "astId": 125,
        "contract": "contracts/FundMe.sol:FundMe",
        "label": "owner",
        "offset": 0,
        "slot": "3",
        "type": "t_address"
      },
      {
        "astId": 128,
        "contract": "contracts/FundMe.sol:FundMe",
        "label": "priceFeed",
        "offset": 0,
        "slot": "4",
        "type": "t_contract(AggregatorV3Interface)45"
      }
    ],
    "types": {
      "t_address": {
        "encoding": "inplace",
        "label": "address",
        "numberOfBytes": "20"
      },
      "t_array(t_address)dyn_storage": {
        "base": "t_address",
        "encoding": "dynamic_array",
        "label": "address[]",
        "numberOfBytes": "32"
      },
      "t_contract(AggregatorV3Interface)45": {
        "encoding": "inplace",
        "label": "contract AggregatorV3Interface",
        "numberOfBytes": "20"
      },
      "t_mapping(t_address,t_uint256)": {
        "encoding": "mapping",
        "key": "t_address",
        "label": "mapping(address => uint256)",
        "numberOfBytes": "32",
        "value": "t_uint256"
      },
      "t_uint256": {
        "encoding": "inplace",
        "label": "uint256",
        "numberOfBytes": "32"
      }
    }
  }
}